:100000000C9434000C9449000C9449000C94490061
:100010000C9449000C9449000C9449000C9449003C
:100020000C9449000C9449000C9449000C9449002C
:100030000C9449000C9449000C9449000C9449001C
:100040000C9449000C9449000C9449000C9449000C
:100050000C9449000C9449000C9449000C944900FC
:100060000C9449000C94490011241FBECFEFD8E036
:10007000DEBFCDBF11E0A0E0B1E0EEE9F1E002C0EB
:1000800005900D92AA30B107D9F70E94C6000C94D2
:10009000CD000C9400001092C50089E18093C4004B
:1000A00088E18093C100E2ECF0E0108286E080837A
:1000B00008959091C0009A70E1F38A3009F48DE0C0
:1000C0008093C60008958091C00087FFFCCF809187
:1000D000C6000895FC012081222369F03196822F09
:1000E0009091C0009A70E1F32A3031F08093C600FD
:1000F00021912111F4CF08958DE0F8CF219A15B800
:1001000082E085B92FEF39E698E1215030409040E8
:10011000E1F700C0000015B82FEF39E698E1215053
:1001200030409040E1F700C00000EBCF229A15B8B4
:1001300088E085B92FEF39E698E1215030409040B2
:10014000E1F700C0000015B82FEF39E698E1215023
:1001500030409040E1F700C00000EBCF239A15B883
:1001600080E185B92FEF39E698E121503040904089
:10017000E1F700C0000015B82FEF39E698E12150F3
:1001800030409040E1F700C00000EBCF0E944B00F0
:0E01900080E091E00E946A00FBCFF894FFCF60
:0A019E004F6C6C65204A200A000037
:00000001FF
